:020000040800F2
:10000000680600208901000891010008930100089A
:100010009501000897010008990100080000000000
:100020000000000000000000000000009B0100082C
:100030009D010008000000009F010008A1010008C8
:10004000A3010008A3010008A3010008A301000800
:10005000A3010008A3010008A3010008A3010008F0
:10006000A3010008A3010008A3010008A3010008E0
:10007000A3010008A3010008A3010008A3010008D0
:10008000A3010008A3010008A3010008A3010008C0
:10009000A3010008A3010008A3010008A3010008B0
:1000A000A3010008A3010008A3010008A3010008A0
:1000B000A3010008A3010008A3010008A301000890
:1000C000A3010008A3010008A3010008A301000880
:1000D000A3010008A3010008A3010008A301000870
:1000E0004D020008A3010008A301000800F002F877
:1000F00000F03AF80AA090E8000C82448344AAF188
:100100000107DA4501D100F02FF8AFF2090EBAE885
:100110000F0013F0010F18BFFB1A43F0010318473B
:10012000E006000000070000103A24BF78C878C13C
:10013000FAD8520724BF30C830C144BF04680C60ED
:10014000704700000023002400250026103A28BF35
:1001500078C1FBD8520728BF30C148BF0B60704739
:100160001FB51FBD10B510BD00F031F81146FFF7E7
:10017000F7FF00F02DFB00F04FF803B4FFF7F2FF9C
:1001800003BC00F057F800000948804709480047C1
:10019000FEE7FEE7FEE7FEE7FEE7FEE7FEE7FEE737
:1001A000FEE7FEE704480549054A064B7047000094
:1001B00071070008ED0000086800002068060020B4
:1001C000680200206802002070477047704775463B
:1001D00000F02CF8AE4605006946534620F00700B3
:1001E000854618B020B5FFF7DDFFBDE820404FF091
:1001F00000064FF000074FF000084FF0000B21F011
:100200000701AC46ACE8C009ACE8C009ACE8C009DD
:10021000ACE8C0098D46704710B50446AFF30080C6
:100220002046BDE81040FFF7A8BF00000048704717
:100230000400002001491820ABBEFEE726000200A2
:10024000704700E0401E0028FCD1704710B54FF405
:10025000806000F053F8002843D04FF480612148BB
:1002600000F083F9002838D104211E4800F088F9F5
:1002700040F23240FFF7E5FF1B48007809282CD1F7
:1002800000201949087024E017480078401C1649DE
:1002900008704FF48061134800F067F958B11248B4
:1002A0000078401E012101FA00F010490978084346
:1002B0000E49087009E00C480078401E0121814079
:1002C0000A48007888430949087040F23240FFF735
:1002D000B8FF054800780928D6D14FF4806000F0B7
:1002E00007F810BD000801400100002000000020B8
:1002F00001490860704700001404014001460020D5
:100300000022074B1B6803EA0102054B14331B68EC
:100310000B4013B10AB1012000E00020704700003B
:1003200000040140002123498279002A3AD00A467C
:10033000126803689A430B461A600A1D1268036824
:100340009A430B1D1A60027911440A6803681A4324
:100350000A60184A0832126803689A43154B08333A
:100360001A601A1D126803689A43124B0C331A6004
:100370004279102A0ED11A1F126803681A430D4BD6
:1003800008331A601A1D126803681A43094B0C33AC
:100390001A600DE00749427911440A6803681A435C
:1003A0000A6005E0027911440A6803689A430A600A
:1003B00070470000000401401FB54FF40070ADF815
:1003C0000C0003208DF80E0010208DF80F0003A9FB
:1003D0001F4800F03FF84FF48060ADF80C00032098
:1003E0008DF80E0048208DF80F0003A9184800F082
:1003F00031F84FF48061164800F0C2F80420ADF8DF
:100400000C0003208DF80E0010208DF80F0003A9BA
:100410000F4800F01FF84FF48060019000208DF825
:1004200008000C208DF8090001208DF80A0001A8B1
:10043000FFF778FF28208DF8000002208DF80200D9
:1004400001208DF80300684600F09CF81FBD0000F5
:10045000000801402DE9F041024600250026002059
:1004600000230024002791F803C00CF00F0591F839
:1004700003C00CF0100CBCF1000F03D091F802C0C7
:100480004CEA050591F800C0BCF1000F31D01468AA
:1004900000202BE04FF0010C0CFA00F3B1F800C083
:1004A0000CEA03069E4220D183004FF00F0C0CFA99
:1004B00003F7BC4305FA03FC4CEA040491F803C0BB
:1004C000BCF1280F06D14FF0010C0CFA00FCC2F869
:1004D00014C00AE091F803C0BCF1480F05D14FF0F9
:1004E000010C0CFA00FCC2F810C0401C0828D1D343
:1004F0001460B1F800C0BCF1FF0F34DD5468002077
:100500002EE000F1080C4FF0010808FA0CF3B1F8E6
:1005100000C00CEA03069E4221D183004FF00F0C6D
:100520000CFA03F7BC4305FA03FC4CEA040491F807
:1005300003C0BCF1280F05D100F1080C08FA0CF833
:10054000C2F8148091F803C0BCF1480F07D100F144
:10055000080C4FF0010808FA0CF8C2F81080401C93
:100560000828CED35460BDE8F0810246002093688D
:100570000B400BB1012000E0002070474161704743
:100580000161704770B5002100230F22C47804B3C5
:10059000154C246804F4E064C4F5E064210AC1F158
:1005A0000403CA40447804FA03F1847814402143D8
:1005B00009010E4C0678A155047804F01F050124AA
:1005C000AC4005786D11AD0005F1E025C5F800419E
:1005D00009E0047804F01F050124AC40044D0678BE
:1005E000761145F8264070BD0CED00E000E400E017
:1005F00080E100E029B1064A92690243044B9A6106
:1006000004E0034A92698243014B9A6170470000FB
:100610000010024010B500F0ABF801210420FFF7F4
:10062000E9FF10BD70B5044600254FF40071154870
:10063000FFF7A4FF40F23A30FFF703FE00BF14E0DB
:1006400004F0010028B14FF400710E48FFF798FF45
:1006500004E04FF400710B48FFF790FF641040F284
:100660003240FFF7EEFD681CC5B2082DE8DB4FF401
:1006700000710448FFF784FF40F23A30FFF7E1FDD4
:1006800070BD00000008014010B500F001F810BD79
:100690000CB50020019000903348006840F4803091
:1006A0003149086000BF3048006800F40030009015
:1006B0000198401C0190009818B90198B0F5A06FFE
:1006C000F1D12948006800F4003010B101200090F9
:1006D00001E0002000900098012843D123480068E1
:1006E00040F01000214908600846006820F003002F
:1006F00008600846006840F0020008601A48406838
:10070000194948600846406848600846406840F417
:10071000806048600846406820F47C1048600846C5
:10072000406840F4E81048600846006840F0807077
:10073000086000BF0C48006800F000700028F9D085
:100740000948406820F003000749486008464068AF
:1007500040F00200486000BF0348406800F00C0011
:100760000828F9D10CBD0000001002400020024012
:1007700010B51348006840F00100114908600846B0
:100780004068104908400E494860084600680E4914
:1007900008400B4908600846006820F48020086083
:1007A0000846406820F4FE0048604FF41F0088604F
:1007B000FFF76AFF4FF000600449086010BD0000B9
:1007C000001002400000FFF8FFFFF6FE08ED00E019
:1007D000FFF720FFFFF7F0FD4FF400710648FFF729
:1007E000CFFE07E005480078FFF71CFF6FF07F4061
:1007F000FFF727FDF6E70000000801400000002099
:100800002008000800000020040000002801000863
:1008100024080008040000206406000044010008C9
:0408200000090000CB
:04000005080000ED02
:00000001FF
